{
  "contractName": "Post",
  "abi": [
    {
      "inputs": [],
      "name": "increase",
      "outputs": [],
      "stateMutability": "nonpayable",
      "type": "function"
    },
    {
      "inputs": [],
      "name": "getValue",
      "outputs": [
        {
          "internalType": "uint256",
          "name": "",
          "type": "uint256"
        }
      ],
      "stateMutability": "view",
      "type": "function",
      "constant": true
    }
  ],
  "bytecode": "0x60806040526000805534801561001457600080fd5b50610176806100246000396000f3fe608060405234801561001057600080fd5b50600436106100365760003560e01c8063209652551461003b578063e8927fbc14610059575b600080fd5b610043610063565b6040516100509190610096565b60405180910390f35b61006161006c565b005b60008054905090565b600160008082825461007e91906100b1565b92505081905550565b61009081610107565b82525050565b60006020820190506100ab6000830184610087565b92915050565b60006100bc82610107565b91506100c783610107565b9250827fffffffffffffffffffffffffffffffffffffffffffffffffffffffffffffffff038211156100fc576100fb610111565b5b828201905092915050565b6000819050919050565b7f4e487b7100000000000000000000000000000000000000000000000000000000600052601160045260246000fdfea2646970667358221220abbb6aba6b8a7f13515d80eb8e30ad7600900d0dac0d3db070a9a054d09abaa164736f6c63430008000033",
  "immutableReferences": {},
  "source": "// SPDX-License-Identifier: MIT\n\npragma solidity ^0.8.0;\n\ncontract Post {\n    uint256 value = 0;\n\n    function increase() public {\n        value += 1;\n    }\n\n    function getValue() public view returns (uint256) {\n        return value;\n    }\n}\n",
  "sourcePath": "/Users/daniieljc/Proyects/sc-dapp/contracts/Post.sol",
  "compiler": {
    "name": "solc",
    "version": "0.8.0+commit.c7dfd78e.Emscripten.clang"
  },
  "schemaVersion": "3.4.3",
  "updatedAt": "2021-12-17T01:17:14.989Z",
  "networkType": "ethereum",
  "devdoc": {
    "kind": "dev",
    "methods": {},
    "version": 1
  },
  "userdoc": {
    "kind": "user",
    "methods": {},
    "version": 1
  }
}