{
  "contractName": "Post",
  "abi": [
    {
      "anonymous": false,
      "inputs": [],
      "name": "FlagCaptured",
      "type": "event"
    },
    {
      "inputs": [],
      "name": "increase",
      "outputs": [],
      "stateMutability": "nonpayable",
      "type": "function"
    },
    {
      "inputs": [],
      "name": "getValue",
      "outputs": [
        {
          "internalType": "uint256",
          "name": "",
          "type": "uint256"
        }
      ],
      "stateMutability": "view",
      "type": "function",
      "constant": true
    }
  ],
  "bytecode": "0x60806040526000805534801561001457600080fd5b506101a2806100246000396000f3fe608060405234801561001057600080fd5b50600436106100365760003560e01c8063209652551461003b578063e8927fbc14610059575b600080fd5b610043610063565b60405161005091906100c2565b60405180910390f35b61006161006c565b005b60008054905090565b600160008082825461007e91906100dd565b925050819055507f9b6f4bb751ab37228e9ae20d5e67a18f1b50b4f8edbbd29b0ffad0358347089960405160405180910390a1565b6100bc81610133565b82525050565b60006020820190506100d760008301846100b3565b92915050565b60006100e882610133565b91506100f383610133565b9250827fffffffffffffffffffffffffffffffffffffffffffffffffffffffffffffffff038211156101285761012761013d565b5b828201905092915050565b6000819050919050565b7f4e487b7100000000000000000000000000000000000000000000000000000000600052601160045260246000fdfea26469706673582212201863be91d00e61cccab9ef1ea78d2a747cddc44a0fb06b8fab78f1b8c251d7dc64736f6c63430008000033",
  "immutableReferences": {},
  "source": "// SPDX-License-Identifier: MIT\r\npragma solidity ^0.8.0;\r\n\r\ncontract Post {\r\n    uint256 value = 0;\r\n    event FlagCaptured();\r\n\r\n    function increase() public {\r\n        value += 1;\r\n        emit FlagCaptured();\r\n    }\r\n\r\n    function getValue() public view returns (uint256) {\r\n        return value;\r\n    }\r\n}\r\n",
  "sourcePath": "C:\\Users\\daniel\\Proyect\\sc-dapp\\contracts\\Post.sol",
  "compiler": {
    "name": "solc",
    "version": "0.8.0+commit.c7dfd78e.Emscripten.clang"
  },
  "schemaVersion": "3.4.4",
  "updatedAt": "2021-12-17T03:34:42.151Z",
  "networkType": "ethereum",
  "devdoc": {
    "kind": "dev",
    "methods": {},
    "version": 1
  },
  "userdoc": {
    "kind": "user",
    "methods": {},
    "version": 1
  }
}